S0120000536D61727420486F6D652E7372656362
S11300000C9473000C9490000C9490000C94900049
S11300100C9490000C9490000C9490000C9490001C
S11300200C9490000C9490000C9490000C9490000C
S11300300C9490000C940C020C9490000C9490007E
S11300400C945F020C9490000C9490000C9490001B
S11300500C9490002A022D023002340238023C0231
S1130060400245024A0230033003300330033003B8
S11300703003300330032A032A032A032A032A0302
S11300802A032A032A032C032C032C032C032C03FA
S11300902C032C032C032E032E032E032E032E03DA
S11300A02E032E032E034A033C033E034003420364
S11300B04403460348034A033C033E03400342030C
S11300C04403460348034A033C033E0340034203FC
S11300D04403460348034A033C033E0340034203EC
S11300E044034603480311241FBECFE5D8E0DEBF16
S11300F0CDBF10E0A0E6B0E0E2ECFBE002C005906A
S11301000D92A836B107D9F720E0A8E6B0E001C007
S11301101D92AC36B207E1F70E94ED010C94DF05A5
S11301200C94000061E0809164000E9481038FE9D7
S11301309FE00197F1F700C0000060E08091640047
S11301400E9481038FE99FE00197F1F700C000004E
S11301500895CF93C82F60E0809166000E948103C8
S11301606C2F661F6627661F809160000E948103C2
S1130170C6FB662760F9809161000E948103C5FB7C
S1130180662760F9809162000E948103C4FB6627A0
S113019060F9809163000E9481030E949200C3FB76
S11301A0662760F9809160000E948103C2FB662784
S11301B060F9809161000E948103C1FB662760F9A8
S11301C0809162000E9481036C2F617080916300B2
S11301D00E9481030E949200CF91089561E0809172
S11301E064000E944D0361E0809165000E944D030C
S11301F061E0809166000E944D0360E0809165009B
S11302000E94810361E0809163000E944D0361E0DC
S1130210809162000E944D0361E0809161000E9420
S11302204D0361E0809160000E944D038FE99FE0DF
S11302300197F1F700C0000082E00E94A90088E263
S11302400E94A9008FE00E94A90081E00E94A900F9
S11302508FE99FE00197F1F700C0000086E00E945B
S1130260A9000895882319F0813031F0089580E8B9
S1130270860F0E94A900089580EC860F0E94A900B1
S11302800895CF93C82F61E0809166000E94810396
S11302906C2F661F6627661F809160000E94810391
S11302A0C6FB662760F9809161000E948103C5FB4B
S11302B0662760F9809162000E948103C4FB66276F
S11302C060F9809163000E9481030E949200C3FB45
S11302D0662760F9809160000E948103C2FB662753
S11302E060F9809161000E948103C1FB662760F977
S11302F0809162000E9481036C2F61708091630081
S11303000E9481030E949200CF910895EF92FF9280
S11303101F93CF93DF93CDB7DEB72A970FB6F89428
S1130320DEBF0FBECDBF7C01009721F480E30E94A5
S113033041012FC0992334F4F194E194F1088DE242
S11303400E94410110E012C0C7016AE070E00E94FF
S1130350B105805DE1E0F0E0EC0FFD1FE10FF11D60
S113036017FDFA958083E62EF72E1F5F1E141F04D7
S11303705CF311500CC0E1E0F0E0EC0FFD1FE10F65
S1130380F11D17FDFA9580810E944101115011233E
S113039094F72A960FB6F894DEBF0FBECDBFDF9157
S11303A0CF911F91FF90EF90089581B3806281BB3C
S11303B01DBC1CBC87E893E197BD86BD82E88FBD58
S11303C08BE18EBD089582E890E09BBD8ABD0895BF
S11303D08EE591E09BBD8ABD08950E94DC030E94D6
S11303E0EE000E94CE0340E066E081E00E94D1026C
S11303F00E94D501789480E00E94F202BC0180E062
S113040090E00E948D04609368007093690080936B
S11304106A0090936B00EFCF1F920F920FB60F926A
S113042011242F933F934F935F936F937F938F93F5
S11304309F93AF93BF93EF93FF93ECB18E2F90E014
S1130440FC01E156F109E930F10540F5E65DFF4FA5
S11304500C94C5050E94E80121C00E94E3011EC05E
S113046080E10E94B4031AC081E10E94B40316C063
S113047082E10E94B40312C083E10E94B4030EC05F
S113048080E090E00E94DA0309C08DE790E00E94CA
S1130490DA0304C08FEF90E00E94DA03FF91EF913A
S11304A0BF91AF919F918F917F916F915F914F9188
S11304B03F912F910F900FBE0F901F9018951F9290
S11304C00F920FB60F921124CF92DF92EF92FF9208
S11304D02F933F934F935F936F937F938F939F9348
S11304E0AF93BF93EF93FF9360916800709169009D
S11304F080916A0090916B000E945E046B017C0104
S113050060E080E00E943201C6010E948601B601CB
S113051080E090E00E948D0420E030E040E85AE35F
S11305200E94200520E030E44CE955E40E942005B7
S113053020E030E040E251E40E94E5036B017C01DD
S113054020E030E040EE51E40E941B0518162CF424
S11305508FEF90E00E94D80304C080E090E00E94F6
S1130560D80360E081E00E943201C701B6010E9415
S11305705704CB010E948601FF91EF91BF91AF9187
S11305809F918F917F916F915F914F913F912F91A7
S1130590FF90EF90DF90CF900F900FBE0F901F90C1
S11305A018959AB321E030E002C0220F331F4A9518
S11305B0E2F7292B2ABB97B19F7397B927B130E48F
S11305C0839FC0011124822B87B986B1887F86B9A5
S11305D086B1682B66B987B18F7D87B986B180688B
S11305E086B9089597B1907E97B997B1892B87B949
S11305F024B185B190E0982F8827822B089581300B
S113060031F058F0823029F0833029F007C098E3A4
S113061005C095E303C092E301C09BE3892F0895CD
S1130620813031F058F0823029F0833029F007C04E
S113063097E305C094E303C091E301C09AE3892FD3
S1130640089590E08032910560F4FC01ED5CFF4F69
S11306500C94C50521E005C022E003C023E001C0DD
S113066020E0822F089590E080329105A0F4FC01EF
S1130670ED5AFF4F0C94C50521E00DC022E00BC0DC
S113068023E009C024E007C025E005C026E003C03C
S113069027E001C020E0822F08951F93CF93DF93BA
S11306A0D82F162F0E9421030E941003C82F8D2FCC
S11306B00E943303112319F0113089F01EC0EC2F6E
S11306C0F0E0408121E030E0B90102C0660F771FFD
S11306D08A95E2F7CB018095842380830EC0EC2FAA
S11306E0F0E0408121E030E0B90102C0660F771FDD
S11306F08A95E2F7CB01842B8083DF91CF911F9100
S113070008951F93CF93DF93D82F162F0E942103B0
S11307100E94FF02C82F8D2F0E943303112389F0FA
S11307201130F1F4EC2FF0E0408121E030E0B90128
S113073002C0660F771F8A95E2F7CB01842B808372
S11307400FC0EC2FF0E0408121E030E0B90102C09D
S1130750660F771F8A95E2F7CB0180958423808307
S1130760DF91CF911F910895CF93DF93D82F0E94EB
S113077021030E94FF02C82F8D2F0E943303EC2F08
S1130780F0E0908121E030E002C0220F331F8A950F
S1130790E2F729272083DF91CF91089583B78966F3
S11307A083BF87B3886087BB81B3806881BB0895AA
S11307B08CBF089583BD089588E98AB980B5866899
S11307C080BD87E689B910BC08950E94F9030C9492
S11307D0E1040E94DA0458F00E94D30440F029F4A2
S11307E05F3F29F00C94CA0451110C9415050C9424
S11307F0D0040E94F20468F39923B1F3552391F3D2
S1130800951B550BBB27AA2762177307840738F07B
S11308109F5F5F4F220F331F441FAA1FA9F335D0D8
S11308200E2E3AF0E0E832D091505040E695001C8C
S1130830CAF72BD0FE2F29D0660F771F881FBB1F46
S1130840261737074807AB07B0E809F0BB0B802D24
S1130850BF01FF2793585F4F3AF09E3F510578F050
S11308600C94CA040C9415055F3FE4F3983ED4F34A
S1130870869577956795B795F7959F5FC9F7880F24
S1130880911D9695879597F90895E1E0660F771F76
S1130890881FBB1F621773078407BA0720F0621B07
S11308A0730B840BBA0BEE1F88F7E09508950E9432
S11308B05E046894B1110C94150508950E94FA041D
S11308C088F09F5798F0B92F9927B751B0F0E1F00D
S11308D0660F771F881F991F1AF0BA95C9F714C0BD
S11308E0B13091F00E941405B1E008950C94140500
S11308F0672F782F8827B85F39F0B93FCCF38695F6
S113090077956795B395D9F73EF490958095709552
S113091061957F4F8F4F9F4F0895E89409C097FBCF
S11309203EF490958095709561957F4F8F4F9F4FC2
S11309309923A9F0F92F96E9BB279395F695879506
S113094077956795B795F111F8CFFAF4BB0F11F4C9
S113095060FF1BC06F5F7F4F8F4F9F4F16C0882370
S113096011F096E911C0772321F09EE8872F762FA6
S113097005C0662371F096E8862F70E060E02AF0E7
S11309809A95660F771F881FDAF7880F96958795D3
S113099097F9089597F99F6780E870E060E00895FB
S11309A09FEF80EC089500240A9416161706180683
S11309B00906089500240A9412161306140605065F
S11309C00895092E0394000C11F4882352F0BB0FF0
S11309D040F4BF2B11F460FF04C06F5F7F4F8F4F53
S11309E09F4F089557FD9058440F551F59F05F3F8E
S11309F071F04795880F97FB991F61F09F3F79F03D
S1130A0087950895121613061406551FF2CF4695BE
S1130A10F1DF08C0161617061806991FF1CF869540
S1130A207105610508940895E894BB276627772724
S1130A30CB0197F908950E948D0508F48FEF08956E
S1130A400E9433050C94E1040E94D30438F00E9400
S1130A50DA0420F0952311F00C94CA040C94D00409
S1130A6011240C9415050E94F20470F3959FC1F3B0
S1130A70950F50E0551F629FF001729FBB27F00D48
S1130A80B11D639FAA27F00DB11DAA1F649F66279D
S1130A90B00DA11D661F829F2227B00DA11D621FEC
S1130AA0739FB00DA11D621F839FA00D611D221FA6
S1130AB0749F3327A00D611D231F849F600D211D8A
S1130AC0822F762F6A2F11249F5750409AF0F1F00D
S1130AD088234AF0EE0FFF1FBB1F661F771F881F76
S1130AE091505040A9F79E3F510580F00C94CA04E0
S1130AF00C9415055F3FE4F3983ED4F386957795FF
S1130B006795B795F795E7959F5FC1F7FE2B880F1B
S1130B10911D9695879597F90895990F0008550F9B
S1130B20AA0BE0E8FEEF16161706E807F907C0F06F
S1130B3012161306E407F50798F0621B730B840B77
S1130B40950B39F40A2661F0232B242B252B21F451
S1130B5008950A2609F4A140A6958FEF811D811DF1
S1130B60089597FB072E16F4009407D077FD09D05B
S1130B700E94CB0507FC05D03EF4909581959F4FCC
S1130B800895709561957F4F0895EE0FFF1F0590AE
S1130B90F491E02D0994AA1BBB1B51E107C0AA1FC5
S1130BA0BB1FA617B70710F0A61BB70B881F991F0A
S1130BB05A95A9F780959095BC01CD010895F894B4
S1050BC0FFCF61
S10B0BC2070605040B0A0900F3
S9030000FC
