S0120000536D61727420486F6D652E7372656362
S11300000C946A000C9487000C9487000C9487006D
S11300100C9487000C9487000C9487000C94870040
S11300200C9487000C9487000C9487000C94870030
S11300300C9487000C94BA010C9487000C948700EC
S11300400C9487000C9487000C9487000C94870010
S11300500C94870031023102310231023102310243
S1130060310231022B022B022B022B022B022B0218
S11300702B022B022D022D022D022D022D022D0208
S11300802D022D022F022F022F022F022F022F02E8
S11300902F022F024B023D023F024102430245025E
S11300A0470249024B023D023F024102430245021C
S11300B0470249024B023D023F024102430245020C
S11300C0470249024B023D023F02410243024502FC
S11300D04702490211241FBECFE5D8E0DEBFCDBFE1
S11300E010E0A0E6B0E0E2EDF5E002C005900D926C
S11300F0A836B107D9F720E0A8E6B0E001C01D9208
S1130100A836B207E1F70E947D010C94E7020C9433
S1130110000061E0809164000E9482028FE99FE008
S11301200197F1F700C0000060E0809164000E9434
S113013082028FE99FE00197F1F700C00000089563
S1130140CF93C82F60E0809166000E9482026C2FDA
S1130150661F6627661F809160000E948202C6FBAC
S1130160662760F9809161000E948202C5FB6627C0
S113017060F9809162000E948202C4FB662760F9E4
S1130180809163000E9482020E948900C3FB66275B
S113019060F9809160000E948202C2FB662760F9C8
S11301A0809161000E948202C1FB662760F9809100
S11301B062000E9482026C2F6170809163000E9431
S11301C082020E948900CF91089561E080916400C9
S11301D00E944E0261E0809165000E944E0261E03F
S11301E0809166000E944E0260E0809165000E944A
S11301F0820261E0809163000E944E0261E080917E
S113020062000E944E0261E0809161000E944E02F1
S113021061E0809160000E944E028FE99FE00197A7
S1130220F1F700C0000082E00E94A00088E20E9472
S1130230A0008FE00E94A00081E00E94A0008FE94E
S11302409FE00197F1F700C0000086E00E94A00043
S11302500895882319F0813031F0089580E8860FDD
S11302600E94A000089580EC860F0E94A0000895CB
S1130270CF93C82F61E0809166000E9482026C2FA8
S1130280661F6627661F809160000E948202C6FB7B
S1130290662760F9809161000E948202C5FB66278F
S11302A060F9809162000E948202C4FB662760F9B3
S11302B0809163000E9482020E948900C3FB66272A
S11302C060F9809160000E948202C2FB662760F997
S11302D0809161000E948202C1FB662760F98091CF
S11302E062000E9482026C2F6170809163000E9400
S11302F082020E948900CF9108950E94D8020E9430
S1130300E5000E94CF02789461E08BE10E944E02E6
S1130310C0E0D0E00AC0CE010E94D6028FE19EE484
S11303200197F1F700C000002196CF3FD10598F363
S11303309FEF24E38CE0915020408040E1F700C01F
S11303400000CFEFD0E00AC0CE010E94D6028FE1B8
S11303509EE40197F1F700C0000021972097A1F7D0
S11303609FEF24E38CE0915020408040E1F700C0EF
S11303700000CECF1F920F920FB60F9211242F932D
S11303803F934F935F936F937F938F939F93AF9319
S1130390BF93CF93EF93FF93CCB160E080E00E94D2
S11303A0290181E60E943801C43669F018F4C33685
S11303B031F014C0C53659F0C63669F00FC08BE170
S11303C00E94B5020BC08BE10E94B50207C08BE10D
S11303D00E94B50203C08BE10E94B502FF91EF9128
S11303E0CF91BF91AF919F918F917F916F915F91C9
S11303F04F913F912F910F900FBE0F901F90189522
S1130400813031F058F0823029F0833029F007C070
S113041098E305C095E303C092E301C09BE3892FF1
S11304200895813031F058F0823029F0833029F07A
S113043007C097E305C094E303C091E301C09AE3C6
S1130440892F089590E08032910560F4FC01E65D07
S1130450FF4F0C94E10221E005C022E003C023E039
S113046001C020E0822F089590E080329105A0F42D
S1130470FC01E65BFF4F0C94E10221E00DC022E099
S11304800BC023E009C024E007C025E005C026E036
S113049003C027E001C020E0822F08951F93CF936B
S11304A0DF93D82F162F0E9422020E941102C82F18
S11304B08D2F0E943402112319F0113089F01EC0CF
S11304C0EC2FF0E0408121E030E0B90102C0660F7A
S11304D0771F8A95E2F7CB018095842380830EC031
S11304E0EC2FF0E0408121E030E0B90102C0660F5A
S11304F0771F8A95E2F7CB01842B8083DF91CF911C
S11305001F9108951F93CF93DF93D82F162F0E9426
S113051022020E940002C82F8D2F0E943402112350
S113052089F01130F1F4EC2FF0E0408121E030E06B
S1130530B90102C0660F771F8A95E2F7CB01842BBD
S113054080830FC0EC2FF0E0408121E030E0B9015E
S113055002C0660F771F8A95E2F7CB01809584234A
S11305608083DF91CF911F910895CF93DF93D82F8C
S11305700E9422020E940002C82F8D2F0E94340282
S1130580EC2FF0E0908121E030E002C0220F331F15
S11305908A95E2F729272083DF91CF91089583B7C5
S11305A0896683BF87B3886087BB08958CBF08952D
S11305B088E98AB980B5866880BD87E689B910BCA8
S11305C00895EE0FFF1F0590F491E02D0994F8941F
S10505D0FFCF57
S10B05D2070605040B0A0900E9
S9030000FC
