S0120000536D61727420486F6D652E7372656362
S11300000C946A000C947F000C947F000C947F0085
S11300100C947F000C947F000C947F000C947F0060
S11300200C947F000C947F000C947F000C947F0050
S11300300C947F000C94EA010C947F000C947F00D4
S11300400C9427020C947F000C947F000C947F0086
S11300500C947F00D102D102D102D102D102D1028B
S1130060D102D102CB02CB02CB02CB02CB02CB0218
S1130070CB02CB02CD02CD02CD02CD02CD02CD0208
S1130080CD02CD02CF02CF02CF02CF02CF02CF02E8
S1130090CF02CF02EB02DD02DF02E102E302E5025E
S11300A0E702E902EB02DD02DF02E102E302E5021C
S11300B0E702E902EB02DD02DF02E102E302E5020C
S11300C0E702E902EB02DD02DF02E102E302E502FC
S11300D0E702E90211241FBECFE5D8E0DEBFCDBFA1
S11300E010E0A0E6B0E0EAE7FAE002C005900D9265
S11300F0A836B107D9F70E94DF010C943B050C9494
S1130100000061E0809164000E9422038FE99FE077
S11301100197F1F700C0000060E0809164000E9444
S113012022038FE99FE00197F1F700C000000895D2
S1130130CF93C82F60E0809166000E9422036C2F49
S1130140661F6627661F809160000E942203C6FB1B
S1130150662760F9809161000E942203C5FB66272F
S113016060F9809162000E942203C4FB662760F953
S1130170809163000E9422030E948100C3FB6627D2
S113018060F9809160000E942203C2FB662760F937
S1130190809161000E942203C1FB662760F980916F
S11301A062000E9422036C2F6170809163000E94A0
S11301B022030E948100CF91089561E08091640040
S11301C00E94EE0261E0809165000E94EE0261E00F
S11301D0809166000E94EE0260E0809165000E94BA
S11301E0220361E0809163000E94EE0261E080914D
S11301F062000E94EE0261E0809161000E94EE02C2
S113020061E0809160000E94EE028FE99FE0019717
S1130210F1F700C0000082E00E94980088E20E948A
S113022098008FE00E94980081E00E9498008FE976
S11302309FE00197F1F700C0000086E00E9498005B
S11302400895882319F0813031F0089580E8860FED
S11302500E949800089580EC860F0E9498000895EB
S1130260CF93C82F61E0809166000E9422036C2F17
S1130270661F6627661F809160000E942203C6FBEA
S1130280662760F9809161000E942203C5FB6627FE
S113029060F9809162000E942203C4FB662760F922
S11302A0809163000E9422030E948100C3FB6627A1
S11302B060F9809160000E942203C2FB662760F906
S11302C0809161000E942203C1FB662760F980913E
S11302D062000E9422036C2F6170809163000E946F
S11302E022030E948100CF910895EF92FF921F9301
S11302F0CF93DF93CDB7DEB72A970FB6F894DEBF5E
S11303000FBECDBF7C01009721F480E30E94300131
S11303102FC0992334F4F194E194F1088DE20E9402
S1130320300110E012C0C7016AE070E00E940D05C0
S1130330805DE1E0F0E0EC0FFD1FE10FF11D17FD22
S1130340FA958083E62EF72E1F5F1E141F045CF3BC
S113035011500CC0E1E0F0E0EC0FFD1FE10FF11DC6
S113036017FDFA9580810E9430011150112394F7F2
S11303702A960FB6F894DEBF0FBECDBFDF91CF91A2
S11303801F91FF90EF900895BC0180E090E00E94DF
S1130390120420E030EC4FE754E40E94710320E0A3
S11303A030E44CE955E40E94A00420E030E040E24F
S11303B051E40E9471030E94E303CB0108950E945B
S11303C0DD0040E066E081E00E946E0278940E94C5
S11303D09C02FDCF1F920F920FB60F9211242F9300
S11303E03F934F935F936F937F938F939F93AF93B9
S11303F0BF93EF93FF938CB1843669F018F483367E
S113040031F014C0853659F0863669F00FC080E1AA
S11304100E9455030BC081E10E94550307C082E18D
S11304200E94550303C083E10E945503FF91EF919D
S1130430BF91AF919F918F917F916F915F914F91F8
S11304403F912F910F900FBE0F901F9018951F9200
S11304500F920FB60F9211242F933F934F935F93F4
S11304606F937F938F939F93AF93BF93CF93DF93B8
S1130470EF93FF9380E00E948F02EC0160E080E044
S11304800E942101CE010E947501CE010E94C40187
S1130490EC014D972CF08FEF90E00E946F0304C0A5
S11304A080E090E00E946F0360E081E00E942101FF
S11304B0CE010E947501FF91EF91DF91CF91BF9121
S11304C0AF919F918F917F916F915F914F913F91E8
S11304D02F910F900FBE0F901F9018959AB321E0A3
S11304E030E002C0220F331F4A95E2F7292B2ABBC2
S11304F097B19F7397B927B130E4839FC00111244A
S1130500822B87B986B1887F86B986B1682B66B994
S113051087B18F7D87B986B1806886B9089597B110
S1130520907E97B997B1892B87B924B185B190E0B2
S1130530982F8827822B089586B1806486B9089500
S1130540813031F058F0823029F0833029F007C02F
S113055098E305C095E303C092E301C09BE3892FB0
S11305600895813031F058F0823029F0833029F039
S113057007C097E305C094E303C091E301C09AE385
S1130580892F089590E08032910560F4FC01E65DC6
S1130590FF4F0C94210521E005C022E003C023E0B5
S11305A001C020E0822F089590E080329105A0F4EC
S11305B0FC01E65BFF4F0C94210521E00DC022E015
S11305C00BC023E009C024E007C025E005C026E0F5
S11305D003C027E001C020E0822F08951F93CF932A
S11305E0DF93D82F162F0E94C2020E94B102C82F97
S11305F08D2F0E94D402112319F0113089F01EC0EE
S1130600EC2FF0E0408121E030E0B90102C0660F38
S1130610771F8A95E2F7CB018095842380830EC0EF
S1130620EC2FF0E0408121E030E0B90102C0660F18
S1130630771F8A95E2F7CB01842B8083DF91CF91DA
S11306401F9108951F93CF93DF93D82F162F0E94E5
S1130650C2020E94A002C82F8D2F0E94D40211232F
S113066089F01130F1F4EC2FF0E0408121E030E02A
S1130670B90102C0660F771F8A95E2F7CB01842B7C
S113068080830FC0EC2FF0E0408121E030E0B9011D
S113069002C0660F771F8A95E2F7CB018095842309
S11306A08083DF91CF911F910895CF93DF93D82F4B
S11306B00E94C2020E94A002C82F8D2F0E94D40261
S11306C0EC2FF0E0908121E030E002C0220F331FD4
S11306D08A95E2F729272083DF91CF9108958CBF73
S11306E008950E9485030C9466040E945F0458F0E8
S11306F00E94580440F029F45F3F29F00C944F0401
S113070051110C949A040C9455040E94770468F3D4
S11307109923B1F3552391F3951B550BBB27AA27B6
S113072062177307840738F09F5F5F4F220F331FF0
S1130730441FAA1FA9F335D00E2E3AF0E0E832D0B8
S113074091505040E695001CCAF72BD0FE2F29D0BB
S1130750660F771F881FBB1F261737074807AB078D
S1130760B0E809F0BB0B802DBF01FF2793585F4F02
S11307703AF09E3F510578F00C944F040C949A047F
S11307805F3FE4F3983ED4F3869577956795B795E4
S1130790F7959F5FC9F7880F911D9695879597F9EF
S11307A00895E1E0660F771F881FBB1F6217730768
S11307B08407BA0720F0621B730B840BBA0BEE1F7D
S11307C088F7E09508950E947F0488F09F5798F079
S11307D0B92F9927B751B0F0E1F0660F771F881F42
S11307E0991F1AF0BA95C9F714C0B13091F00E945C
S11307F09904B1E008950C949904672F782F882701
S1130800B85F39F0B93FCCF3869577956795B39582
S1130810D9F73EF490958095709561957F4F8F4FF1
S11308209F4F0895E89409C097FB3EF490958095F6
S1130830709561957F4F8F4F9F4F9923A9F0F92FA2
S113084096E9BB279395F695879577956795B79520
S1130850F111F8CFFAF4BB0F11F460FF1BC06F5F06
S11308607F4F8F4F9F4F16C0882311F096E911C018
S1130870772321F09EE8872F762F05C0662371F039
S113088096E8862F70E060E02AF09A95660F771F4D
S1130890881FDAF7880F9695879597F9089597F941
S11308A09F6780E870E060E008959FEF80EC089512
S11308B000240A941616170618060906089500243B
S11308C00A9412161306140605060895092E0394B5
S11308D0000C11F4882352F0BB0F40F4BF2B11F429
S11308E060FF04C06F5F7F4F8F4F9F4F089557FD88
S11308F09058440F551F59F05F3F71F04795880F8A
S113090097FB991F61F09F3F79F087950895121620
S113091013061406551FF2CF4695F1DF08C01616CC
S113092017061806991FF1CF86957105610508947D
S11309300895E894BB2766277727CB0197F9089594
S11309400E94B3040C9466040E94580438F00E9478
S11309505F0420F0952311F00C944F040C9455047B
S113096011240C949A040E94770470F3959FC1F3A8
S1130970950F50E0551F629FF001729FBB27F00D49
S1130980B11D639FAA27F00DB11DAA1F649F66279E
S1130990B00DA11D661F829F2227B00DA11D621FED
S11309A0739FB00DA11D621F839FA00D611D221FA7
S11309B0749F3327A00D611D231F849F600D211D8B
S11309C0822F762F6A2F11249F5750409AF0F1F00E
S11309D088234AF0EE0FFF1FBB1F661F771F881F77
S11309E091505040A9F79E3F510580F00C944F045C
S11309F00C949A045F3FE4F3983ED4F3869577957C
S1130A006795B795F795E7959F5FC1F7FE2B880F1C
S1130A10911D9695879597F9089597FB072E16F4DF
S1130A20009407D077FD09D00E94270507FC05D064
S1130A303EF4909581959F4F0895709561957F4FF1
S1130A400895EE0FFF1F0590F491E02D0994AA1B61
S1130A50BB1B51E107C0AA1FBB1FA617B70710F0A5
S1130A60A61BB70B881F991F5A95A9F780959095D7
S10D0A70BC01CD010895F894FFCFF6
S10B0A7A070605040B0A09003C
S9030000FC
