:100000000C946A000C9487000C9487000C94870071
:100010000C9487000C9487000C9487000C94870044
:100020000C9487000C9487000C9487000C94870034
:100030000C9487000C9487000C9487000C94870024
:100040000C9487000C9487000C9487000C94870014
:100050000C9487004D034D034D034D034D034D0399
:100060004D034D0347034703470347034703470334
:100070004703470349034903490349034903490324
:10008000490349034B034B034B034B034B034B0304
:100090004B034B03670359035B035D035F0361037A
:1000A00063036503670359035B035D035F03610338
:1000B00063036503670359035B035D035F03610328
:1000C00063036503670359035B035D035F03610318
:1000D0006303650311241FBECFE5D8E0DEBFCDBFAB
:1000E00010E0A0E6B0E0E8E4F8E002C005900D9270
:1000F000A836B107D9F720E0A8E6B0E001C01D920C
:10010000A936B207E1F70E94FF010C9422040C9477
:10011000000061E0809164000E94BD038FE99FE0D0
:100120000197F1F700C0000060E0809164000E9438
:10013000BD038FE99FE00197F1F700C0000008952B
:10014000CF93C82F60E0809166000E94BD0367E0F6
:1001500070E08C2F0E941403682F809160000E9431
:10016000BD0366E070E08C2F0E941403682F80911D
:1001700061000E94BD0365E070E08C2F0E941403B3
:10018000682F809162000E94BD0364E070E08C2FB4
:100190000E941403682F809163000E94BD030E9497
:1001A000890063E070E08C2F0E941403682F809117
:1001B00060000E94BD0362E070E08C2F0E94140377
:1001C000682F809161000E94BD0361E070E08C2F78
:1001D0000E941403682F809162000E94BD0360E0BA
:1001E00070E08C2F0E941403682F809163000E949E
:1001F000BD030E948900CF91089561E08091640061
:100200000E94890361E0809165000E94890361E09A
:10021000809166000E94890360E0809165000E94E1
:10022000BD0361E0809163000E94890361E08091D9
:1002300062000E94890361E0809161000E9489034D
:1002400061E0809160000E9489038FE99FE001973F
:10025000F1F700C0000082E00E94A00088E20E9446
:10026000A0008FE00E94A00081E00E94A0009FEF0C
:1002700021EE84E0915020408040E1F700C0000072
:1002800086E00E94A0000895CF93C82F61E080917E
:1002900066000E94BD0367E070E08C2F0E9414038B
:1002A000682F809160000E94BD0366E070E08C2F93
:1002B0000E941403682F809161000E94BD0365E0D5
:1002C00070E08C2F0E941403682F809162000E94BE
:1002D000BD0364E070E08C2F0E941403682F8091AE
:1002E00063000E94BD030E94890063E070E08C2FD0
:1002F0000E941403682F809160000E94BD0362E099
:1003000070E08C2F0E941403682F809161000E947E
:10031000BD0361E070E08C2F0E941403682F809170
:1003200062000E94BD0360E070E08C2F0E94140305
:10033000682F809163000E94BD030E948900CF91C5
:100340000895EF92FF921F93CF93DF93CDB7DEB75F
:100350002A970FB6F894DEBF0FBECDBF7C01009781
:1003600021F480E30E9444012FC0992334F4F194D6
:10037000E194F1088DE20E94440110E012C0C7012F
:100380006AE070E00E94F403805DE1E0F0E0EC0FD1
:10039000FD1FE10FF11D17FDFA958083E62EF72E64
:1003A0001F5F1E141F045CF311500CC0E1E0F0E06D
:1003B000EC0FFD1FE10FF11D17FDFA9580810E94E2
:1003C00044011150112394F72A960FB6F894DEBF1A
:1003D0000FBECDBFDF91CF911F91FF90EF90089599
:1003E000882319F0813031F0089580E8860F0E944B
:1003F000A000089580EC860F0E94A000089541E0BF
:1004000062E081E00E94EF020E94FD0081E00E9414
:100410000203EC0160E080E00E94F001CE010E9446
:10042000A1012FEF89E698E1215080409040E1F74B
:1004300000C00000EBCF87B1807F87B9089597B1E6
:10044000892B87B90895813069F028F0823089F0CE
:100450008330B1F0089587B18F7787B987B18F7BEB
:1004600087B9089587B18F7787B987B1806487B9D5
:10047000089587B1806887B987B18F7B87B9089560
:1004800087B1806887B987B1806487B90895809300
:100490006800811104C087B18F7D87B908958130CC
:1004A00019F487B1806287B9089541E067E086E278
:1004B0000E946A03089541E066E086E20E946A03B2
:1004C0000895803181F128F4823069F08430D9F0C8
:1004D0000895803409F447C0803809F454C080324C
:1004E00009F060C030C040E062E086E20E946A032A
:1004F00040E061E086E20E946A0341E060E086E25B
:100500000E946A03089540E062E086E20E946A0366
:1005100041E061E086E20E946A0340E060E086E23A
:100520000E946A03089541E062E086E20E946A0345
:1005300040E061E086E20E946A0340E060E086E21B
:100540000E946A03089541E062E086E20E946A0325
:1005500040E061E086E20E946A0341E060E086E2FA
:100560000E946A03089541E062E086E20E946A0305
:1005700041E061E086E20E946A0340E060E086E2DA
:100580000E946A03089541E062E086E20E946A03E5
:1005900041E061E086E20E946A0341E060E086E2B9
:1005A0000E946A03089584E20E94F00385E20E949B
:1005B000F003982F80916800882319F0813051F062
:1005C0000BC0292F30E0220F331F220F331F822F41
:1005D000932F089580E0089580E090E00895CF93F0
:1005E000DF93C62FD42F0E9423028D2F0E94470233
:1005F0000E9455020E945B028C2F0E946102DF91D3
:10060000CF910895CF93C82F0E941B028C2F0E9478
:100610001F020E945B0286E20E94F00386FDFBCF70
:100620000E94D302CF91089590E002C095958795DE
:100630006A95E2F781700895813031F058F0823088
:1006400029F0833029F007C098E305C095E303C083
:1006500092E301C09BE3892F0895813031F058F077
:10066000823029F0833029F007C097E305C094E376
:1006700003C091E301C09AE3892F089590E080328E
:10068000910560F4FC01E65DFF4F0C94080421E045
:1006900005C022E003C023E001C020E0822F0895BE
:1006A00090E080329105A0F4FC01E65BFF4F0C94D2
:1006B000080421E00DC022E00BC023E009C024E0C3
:1006C00007C025E005C026E003C027E001C020E008
:1006D000822F0895442379F04130D1F4E82FF0E0DF
:1006E000208181E090E002C0880F991F6A95E2F7AF
:1006F000822B80830895E82FF0E0208181E090E054
:1007000002C0880F991F6A95E2F780958223808343
:1007100008951F93CF93DF93D82F162F0E943E0387
:100720000E942D03C82F8D2F0E945003112319F012
:10073000113089F01EC0EC2FF0E0408121E030E064
:10074000B90102C0660F771F8A95E2F7CB01809549
:10075000842380830EC0EC2FF0E0408121E030E064
:10076000B90102C0660F771F8A95E2F7CB01842B8F
:100770008083DF91CF911F9108951F93CF93DF93D3
:10078000D82F162F0E943E030E941C03C82F8D2FC6
:100790000E945003112389F01130F1F4EC2FF0E0A6
:1007A000408121E030E0B90102C0660F771F8A95D1
:1007B000E2F7CB01842B80830FC0EC2FF0E0408167
:1007C00021E030E0B90102C0660F771F8A95E2F799
:1007D000CB01809584238083DF91CF911F91089571
:1007E000E82FF0E08081089597FB072E16F400941F
:1007F00007D077FD09D00E940E0407FC05D03EF417
:10080000909581959F4F0895709561957F4F0895BC
:10081000EE0FFF1F0590F491E02D0994AA1BBB1B5E
:1008200051E107C0AA1FBB1FA617B70710F0A61BF0
:10083000B70B881F991F5A95A9F780959095BC0111
:08084000CD010895F894FFCFEB
:08084800070605040B0A090074
:00000001FF
