:100000000C946A000C947F000C947F000C947F0089
:100010000C947F000C947F000C947F000C947F0064
:100020000C947F000C947F000C947F000C947F0054
:100030000C947F000C947F000C947F000C947F0044
:100040000C947F000C947F000C947F000C947F0034
:100050000C947F00F601F601F601F601F601F601B7
:10006000F601F601F001F001F001F001F001F001FC
:10007000F001F001F201F201F201F201F201F201EC
:10008000F201F201F401F401F401F401F401F401CC
:10009000F401F401100202020402060208020A023C
:1000A0000C020E02100202020402060208020A02F8
:1000B0000C020E02100202020402060208020A02E8
:1000C0000C020E02100202020402060208020A02D8
:1000D0000C020E0211241FBECFE5D8E0DEBFCDBF5B
:1000E00010E0A0E6B0E0E4E0F5E002C005900D927B
:1000F000AE36B107D9F70E9493010C9480020C949C
:10010000000061E0809164000E9447028FE99FE057
:100110000197F1F700C0000060E0809164000E9448
:1001200047028FE99FE00197F1F700C000000895B2
:10013000CF93C82F60E0809166000E94470267E07D
:100140008C2F0E94BD01682F809160000E944702A1
:1001500066E08C2F0E94BD01682F809161000E9493
:10016000470265E08C2F0E94BD01682F80916200DC
:100170000E94470264E08C2F0E94BD01682F80918D
:1001800063000E9447020E94810063E08C2F0E945E
:10019000BD01682F809160000E94470262E08C2FB1
:1001A0000E94BD01682F809161000E94470261E0BA
:1001B0008C2F0E94BD01682F809162000E9447022F
:1001C00060E08C2F0E94BD01682F809163000E9427
:1001D00047020E948100CF91089561E08091640000
:1001E0000E94130261E0809165000E94130261E0A9
:1001F000809166000E94130260E0809165000E9479
:10020000470261E0809163000E94130261E08091E7
:1002100062000E94130261E0809161000E9413025B
:1002200061E0809160000E9413028FE99FE00197D6
:10023000F1F700C0000082E00E94980088E20E946E
:1002400098008FE00E94980081E00E9498008FE95A
:100250009FE00197F1F700C0000086E00E9498003F
:100260000895CF93C82F61E0809166000E944702F5
:1002700067E08C2F0E94BD01682F809160000E9472
:10028000470266E08C2F0E94BD01682F80916100BB
:100290000E94470265E08C2F0E94BD01682F80916B
:1002A00062000E94470264E08C2F0E94BD01682F0B
:1002B000809163000E9447020E94810063E08C2FBE
:1002C0000E94BD01682F809160000E94470262E099
:1002D0008C2F0E94BD01682F809161000E9447020F
:1002E00061E08C2F0E94BD01682F809162000E9406
:1002F000470260E08C2F0E94BD01682F809163004F
:100300000E9447020E948100CF910895CF93DF930E
:10031000EC0103C00E943101219688818111FACF3E
:10032000DF91CF9108950E94ED002FEF31EE84E030
:10033000215030408040E1F700C00000C0E0D0E034
:100340000FC087E690E00E9486019AEA26EE36E921
:1003500081E09150204030408040D9F70000219644
:10036000C530D10574F39FEF23ED30E39150204069
:100370003040E1F700C00000E1CF90E002C0959569
:1003800087956A95E2F781700895813031F058F0D1
:10039000823029F0833029F007C098E305C095E347
:1003A00003C092E301C09BE3892F0895813031F0AF
:1003B00058F0823029F0833029F007C097E305C058
:1003C00094E303C091E301C09AE3892F089590E07C
:1003D0008032910560F4FC01E65DFF4F0C947A02D7
:1003E00021E005C022E003C023E001C020E0822F0D
:1003F000089590E080329105A0F4FC01E65BFF4F88
:100400000C947A0221E00DC022E00BC023E009C069
:1004100024E007C025E005C026E003C027E001C0B6
:1004200020E0822F08951F93CF93DF93D82F162FAC
:100430000E94E7010E94D601C82F8D2F0E94F9016A
:10044000112319F0113089F01EC0EC2FF0E040812B
:1004500021E030E0B90102C0660F771F8A95E2F70C
:10046000CB018095842380830EC0EC2FF0E0408187
:1004700021E030E0B90102C0660F771F8A95E2F7EC
:10048000CB01842B8083DF91CF911F9108951F931F
:10049000CF93DF93D82F162F0E94E7010E94C5014A
:1004A000C82F8D2F0E94F901112389F01130F1F42A
:1004B000EC2FF0E0408121E030E0B90102C0660F8E
:1004C000771F8A95E2F7CB01842B80830FC0EC2F36
:1004D000F0E0408121E030E0B90102C0660F771FF3
:1004E0008A95E2F7CB01809584238083DF91CF91B9
:1004F0001F910895EE0FFF1F0590F491E02D0994D0
:04050000F894FFCF9D
:0E050400070605040B0A094265736D203300DB
:00000001FF
